:100000000C94E6010C9425180C94FA170C94CF1755
:100010000C94A4170C9479170C944E170C94231776
:100020000C94F8160C9417020C9417020C941702F7
:100030000C9417020C9417020C9417020C941702DC
:100040000C9417020C9417020C9417020C941702CC
:100050000C9417020C9417020C9417020C94AE1611
:100060000C9417020C94DA180C94B0180C94170224
:100070000C9417020C9417020C9417020C9417029C
:100080000C9417020C9417020C9417020C9417028C
:100090000C9417020C9417020C9417020C9410196C
:1000A0000C9417020C9417020C9417020C9417026C
:1000B0000C9417020C9417020C9417020C9417025C
:1000C0000C9417020C9417020C9417020C9417024C
:1000D0000C9417020C9417020C947A180C94501874
:1000E0000C9417020C94440A0C9479220C94661018
:1000F0000C94C6020C94C6220C946D220C942D22F2
:100100000C941A020C94C3080C942A0A0C94050E41
:100110000C949F020C9429140C94D9020C94BB2BC0
:100120000C94A2220C9459220C945A250C94D907B1
:100130000C94A20B0C94D4270C94AB020C94482B77
:100140000C94341A0C94CC020C94E8120C9485078D
:100150000C94710A0C940E250C94B6070C94B725D8
:100160000C94EB120C94B80A0C94EA2A0C942E25E9
:100170000C9438250C94EF290C9476080C94B80252
:100180000C941B0A0C94C4100C9496220C94B40288
:100190000C9445220C9419020C941A0A0C946810C1
:1001A0000C9474160C943E240C9456230C943E2507
:1001B0000C94DA020C94AE020C94AB290C94C2029B
:1001C0000C9472280C946D290C9461220C94A30257
:1001D0000C9447250C9461250C94D4020C9439227C
:1001E0000C941E2D0C94DE2B0C94AE220C94D00299
:1001F0000C9441250C9489070C94EF120C94E7079A
:100200000C943D0A0C9428220C9423220C94511334
:100210000C94D2220C943B250C9429080C94A22B0C
:100220000C94A7020C9499020C94D22B0C94D72214
:100230000C9485220C9451220C9444250C94582340
:100240000C94DE020C9488070C94030E0C94B028D6
:100250000C94BA220C947B290C94BE020C94352584
:100260000C94A3270C94872B0C94C5074E414E4940
:100270004E495459494E46CDCCCC3D0AD7233C1764
:10028000B7D13877CC2B329595E6241FB14F0A00B1
:100290000020410000C84200401C4620BCBE4CCAA1
:1002A0001B0E5AAEC59D7400002100240027002AB1
:1002B000002D003000330001010000040107010A95
:1002C0000100002200250028002B002E0031003400
:1002D0000002010000050108010B0100000A0B02E9
:1002E000090C0D0E080703040100000000000000C7
:1002F00000000000000000000000000000000000FE
:1003000000000000000000121110000000000000BA
:1003100000000000000000000000000000000000DD
:1003200000000020002300260029002C002F0032AE
:10033000000001000003010601090105050505078C
:100340000508080808020202020A0A080804040450
:10035000040101010101010101030303030303037C
:1003600003040707070C0C0C0C0C0C0C0C0202020B
:100370000206060606060606060B0B0B0B0B0B0BFE
:100380000B0102102020080810204010204080029D
:1003900001020108040201010204081020408080CB
:1003A000402010080402018004020180402010084F
:1003B0000402010804020101020408102040800127
:1003C0000204081020408000341A1E2D11241FBE84
:1003D000CFEFD1E2DEBFCDBF00E00CBF14E0A0E064
:1003E000B2E0ECECF7E600E00BBF02C007900D9224
:1003F000AA34B107D9F72AE0AAE4B4E001C01D92FB
:10040000A533B207E1F711E0C5EED1E000E006C088
:1004100021970109802FFE010E949B32C43ED10723
:1004200080E00807A9F70E94E21B0C94D4330C94D7
:1004300000000895089520E0DC0160FF03C001C0C2
:100440002D932D936250E0F77040D0F70895CF932D
:10045000DF93C0910808D0910908209789F08A811C
:100460009B81009749F02D853E85B901660F771F66
:10047000620F731F0E941B020C80DD81C02DEDCF27
:10048000DF91CF910895CF92DF92EF92FF92CF93B9
:10049000DF93B091AE09A0E08111AB2F8091AF093D
:1004A00090E0880F991FAC014F5D5C4FC090B4097C
:1004B000D090B509E090B609F090B70930E020E09F
:1004C000FA01C591D491E881B90190E080E0EB2375
:1004D000EA130AC02F5F3F4F6C157D058E059F05FF
:1004E00078F36FEF7FEFCB01DF91CF91FF90EF902B
:1004F000DF90CF9008958150823108F05AC0E82FE4
:10050000F0E08827E957FD4F8F4F0C949B32A702EC
:10051000AB0299029F02A302D902AE02B402B80252
:10052000BE02C202C602CC02D002D902D402DA0252
:10053000DE02809180008F77809380000895809103
:1005400080008F7DF9CF80918000877FF5CF84B5C3
:100550008F7784BD089584B58F7DFBCF8091B000E7
:100560008F778093B00008958091B0008F7DF9CF90
:10057000809190008F7780939000089580919000F3
:100580008F7DF9CF80919000877FF5CF8091A0007B
:100590008F778093A00008958091A0008F7DF9CF80
:1005A0008091A000877FF5CF809120018F77809385
:1005B00020010895809120018F7DF9CF8091200145
:1005C000877FF5CFCF93DF93282F30E0F901E552F5
:1005D000FD4F8491F901EF57FC4FD491F901E55C8F
:1005E000FC4FC491CC23A1F081110E947B02EC2F1F
:1005F000F0E0EE0FFF1FEF5DFC4FA591B491EC9181
:10060000ED2381E090E009F480E0DF91CF9108953F
:1006100080E090E0FACF1F93CF93DF93282F30E054
:10062000F901E552FD4F8491F901EF57FC4FD49148
:10063000F901E55CFC4FC491CC23A9F0162F811180
:100640000E947B02EC2FF0E0EE0FFF1FEF53FD4FF7
:10065000A591B4918FB7F894EC91111108C0D09581
:10066000DE23DC938FBFDF91CF911F910895DE2BA6
:10067000F8CFCF93DF9390E0FC01EF57FC4F24912C
:10068000855C9C4FFC0184918823C9F090E0880F21
:10069000991FFC01E955FD4FA591B491FC01EF5361
:1006A000FD4FC591D49161110DC09FB7F8948C9105
:1006B000209582238C938881282328839FBFDF91F4
:1006C000CF910895623051F49FB7F8943C91822FF6
:1006D000809583238C93E8812E2BEFCF8FB7F894EE
:1006E000EC912E2B2C938FBFEACFBF92CF92DF924B
:1006F000EF92FF920F931F93CF93DF93D82FC8E011
:100700009BEEE92EF12C2FE0C22ED12C61E088E186
:100710000E943903BFB6F8940D2F10E0D0FF1AC025
:10072000C6010197F1F760E088E10E943903C70133
:100730000197F1F7BFBE15950795D02FC15031F73E
:10074000DF91CF911F910F91FF90EF90DF90CF90AD
:10075000BF900895C7010197F1F760E088E10E941A
:100760003903C601E5CF0F931F93CF93DF938C011D
:1007700085E50E947503D0E0C0E0D801ED91FC91C1
:10078000EC0FFD1F80810E9475032196C830D105B2
:10079000A1F7DF91CF911F910F9108951F93CF93F0
:1007A000DF9361E088E10E943903CBE5D9E0CE0117
:1007B0000197F1F760E088E10E9439031FB7F894D0
:1007C0008BEE90E00197F1F788E10E94E2029C0134
:1007D0001FBF2197F1F781E0232B09F080E0DF9123
:1007E000CF911F910895CF93DF93EC0118820E945F
:1007F000CE03882349F0CE0103960E94B30384E41C
:10080000DF91CF910C947503DF91CF9108952F92D2
:100810003F924F925F926F927F928F929F92AF9290
:10082000BF92CF92DF92EF92FF920F931F93CF93DD
:10083000DF9300D01F92CDB7DEB78C0181E0F801C5
:1008400080830E94CE03382E811119C0312C832D54
:100850000F900F900F900F90DF91CF911F910F91FC
:10086000FF90EF90DF90CF90BF90AF909F908F90D0
:100870007F906F905F904F903F902F900895C801A8
:1008800003960E94B3038EEB0E9475031982712CAC
:10089000612C412C43E0842E912C5BE1C52ED12CA0
:1008A0006BEEA62EB12C38E0232E512CE52CF12C2A
:1008B000F594E7945E2CFFB7FA83F89461E088E141
:1008C0000E943903C4010197F1F760E088E10E94BA
:1008D0003903C6010197F1F788E10E94E202892BF2
:1008E00011F0689457F8C5010197F1F72A812FBFDD
:1008F0002A942110DBCF252D30E0620E731E8981F2
:10090000852598E04CE8869508F484279A95D9F7D0
:10091000898341101CC03C832B834394F9E04F1220
:10092000C2CF27EF621628E0720609F48FCF67283E
:1009300009F48CCF81118ACF4B815C81403585E0F1
:10094000580709F484CFF8015283418380CF41E0F6
:100950004412E3CF322F2227EB81FC81E22BF32BD1
:10096000FC83EB83DACF863308F0865320917B003B
:10097000982F9870277F922B90937B0087708064CC
:1009800080937C0080917A00806480937A008091CB
:100990007A0086FDFCCF80917800909179000895CF
:1009A0003FB7F8948091A5079091A607A091A7075B
:1009B000B091A80726B5A89B05C02F3F19F0019656
:1009C000A11DB11D3FBFBA2FA92F982F8827BC01A9
:1009D000CD01620F711D811D911D42E0660F771FD1
:1009E000881F991F4A95D1F708958F929F92AF92D1
:1009F000BF92CF92DF92EF92FF924B015C010E9477
:100A0000D0046B017C010E94D0046C197D098E0911
:100A10009F09683E734081059105A8F321E0821A81
:100A20009108A108B10888EEC80E83E0D81EE11C29
:100A3000F11C81149104A104B10429F7FF90EF90F7
:100A4000DF90CF90BF90AF909F908F9008952FB779
:100A5000F8946091A1077091A2078091A3079091EB
:100A6000A4072FBF08954F925F926F927F929F923B
:100A7000AF92BF92CF92DF92EF92FF920F931F93AC
:100A8000CF93DF9300D0CDB7DEB7D82E8091AE08DC
:100A90009091AF08A091B008B091B108892B8A2B32
:100AA0008B2BD9F00E94D00400910A0810910B08FA
:100AB00020910C0830910D08601B710B820B930B79
:100AC0000091AE081091AF082091B0083091B108A4
:100AD0006017710782079307C8F20E94D0046093E1
:100AE0000A0870930B0880930C0890930D08E0910E
:100AF000B608F091B708309759F04091B20850917C
:100B0000B3086091B4087091B5088D2D1995D82E51
:100B1000E0900808F09009084D2C512C712C612CA4
:100B2000E114F10409F459C0D7011C96CC901C972C
:100B30008091AC089091AD088436910510F41C9614
:100B40001C92D701ED91FC91A280B38019821A8288
:100B50001B82DD2079F1F701369610E000E021914B
:100B6000222319F19280992001F130E050E040E019
:100B70002F5F3F4F4F4F5F4FC301B2010E94C730FD
:100B80009B01AC01892D90E0B0E0A0E0BC01CD015B
:100B90006F5F7F4F8F4F9F4F0E94C730A1E0B0E043
:100BA000AC0FBD1FA00FB11F8C930F5F1F4F033001
:100BB0001105A9F609811A812B81F7014585568512
:100BC00062817381C701F5011995D7011C96CC92FA
:100BD0001C971496ED90FC90A3CF809106089091FD
:100BE00007088C010F5F1F4F10930708009306083A
:100BF0004997B4F10E942705C0900208D0900308DD
:100C0000E0900408F09005089B01AC012C193D0907
:100C10004E095F0921F421E030E040E050E088EE29
:100C200093E0089FB001099F700D189F700D11246B
:100C3000072E000C880B990B0E94D7303093AD081B
:100C40002093AC0810920708109206080E9427050E
:100C5000609302087093030880930408909305083A
:100C60000F900F900F90DF91CF911F910F91FF90F8
:100C7000EF90DF90CF90BF90AF909F907F906F905C
:100C80005F904F9008950F931F93CF93DF93EC01E4
:100C90008091F20981110DC081E08093F2090E94D8
:100CA00027056093FB097093FC098093FD099093DD
:100CB000FE090E9427050091FB091091FC09209173
:100CC000FD093091FE09AB01BC01401B510B620BC9
:100CD000730B8091F9099091FA09B0E0A0E04817F0
:100CE00059076A077B0730F081E088838093F30916
:100CF0001092F209DF91CF911F910F910895CF9239
:100D0000DF92EF92FF920F931F93CF93DF93CDB7B4
:100D1000DEB7C054D1400FB6F894DEBF0FBECDBFD2
:100D20000E9427050091B0091091B1092091B209E4
:100D30003091B3096B017C01C01AD10AE20AF30AAF
:100D400097018601003D17402105310590F48091FF
:100D5000B809C05CDE4F0FB6F894DEBF0FBECDBF42
:100D6000DF91CF911F910F91FF90EF90DF90CF9087
:100D700008956093B0097093B1098093B20990937C
:100D8000B3091092AB091092AA091092A909109206
:100D9000A8091092A70962E08091AC090E9439036A
:100DA00061E070E080E090E00E94F50461E08091F5
:100DB000AC090E94390360E08091AC090E940B03EA
:100DC0008091AD098551823020F58BE291E1019748
:100DD000F1F762E08091AC090E9439038091B90972
:100DE00090E08230910538F0880F991F880F991F85
:100DF00005970197F1F7F89480E00E9443026F3F56
:100E00007F4F8F4F9F4F61F41092B809789480E024
:100E1000A0CF64E170E080E090E00E94F504D9CFBB
:100E200081E00E9443026F3F7F4F8F4F9F4F61F3DE
:100E30008E010F5F1F4F6E012FEBC21A2EEFD20AE9
:100E4000780180E00E944302F7016083718382830E
:100E5000938381E00E944302F70164837583868354
:100E60009783F8E0EF0EF11CEC14FD0451F7789431
:100E700030E020E0F801C080D180E280F38044813E
:100E8000558166817781FFEFCF16DF06EF06FF06FB
:100E900031F04F3F8FEF58076807780719F4109229
:100EA000B809B5CFF90183E0F595E7958A95E1F7A3
:100EB000E955F64F8081880FC416D506E606F70679
:100EC00010F180832F5F3F4F085F1F4F283231059D
:100ED00089F64091AB092091A7098091A809280FB4
:100EE0003327331F8091A909280F311D8091AA094A
:100EF000820F932F911D99274817190681F681E0DB
:100F00008093B80926CF8160DCCF80E991E0089515
:100F10000895AF92BF92CF92DF92EF92FF920F931C
:100F20001F93CF93DF936C017B018B01040F151F7F
:100F3000EB015E01AE18BF08C017D10759F06991E7
:100F4000D601ED91FC910190F081E02DC60119953B
:100F5000892B79F7C501DF91CF911F910F91FF90F8
:100F6000EF90DF90CF90BF90AF900895FC01538D2C
:100F7000448D252F30E0842F90E0821B930B541773
:100F800010F0CF96089501970895FC01918D828D00
:100F9000981761F0A28DAE0FBF2FB11D5D968C9199
:100FA000928D9F5F9F73928F90E008958FEF9FEFD8
:100FB0000895FC01918D828D981731F0828DE80F94
:100FC000F11D858D90E008958FEF9FEF0895FC014E
:100FD000918D228D892F90E0805C9F4F821B91091B
:100FE0008F739927089583ED98E00E94E70721E029
:100FF000892B09F420E0822F08958EE098E00E946A
:10100000E70721E0892B09F420E0822F0895FC01F5
:10101000A48DA80FB92FB11DA35ABF4F2C91848D59
:1010200090E001968F739927848FA689B7892C93B6
:10103000A089B1898C91837080648C93938D848D09
:10104000981306C00288F389E02D80818F7D80830C
:101050000895EF92FF920F931F93CF93DF93EC01CC
:1010600081E0888F9B8D8C8D98131AC0E889F9894F
:10107000808185FF15C09FB7F894EE89FF89608352
:10108000E889F98980818370806480839FBF81E0D3
:1010900090E0DF91CF911F910F91FF90EF90089515
:1010A000F62E0B8D10E00F5F1F4F0F731127E02EF0
:1010B0008C8D8E110CC00FB607FCFACFE889F98928
:1010C000808185FFF5CFCE010E940708F1CFEB8D1F
:1010D000EC0FFD2FF11DE35AFF4FF0829FB7F894FC
:1010E0000B8FEA89FB8980818062CFCFCF93DF931A
:1010F000EC01888D8823B9F0AA89BB89E889F98930
:101100008C9185FD03C0808186FD0DC00FB607FC64
:10111000F7CF8C9185FFF2CF808185FFEDCFCE0197
:101120000E940708E9CFDF91CF91089580E090E019
:10113000892B29F00E94FD0781110E94000080E0A8
:1011400090E0892B49F080E090E0892B29F00E9403
:10115000000081110E94000080E090E0892B49F09E
:1011600080E090E0892B29F00E94000081110E940C
:10117000000080E090E0892B29F00E94F3078111A4
:101180000C9400000895089520917D04260F3327C4
:10119000331F21323105ECF42091CF07FC0190E0A0
:1011A00080E0243069F082E00895A0917D042191CF
:1011B000AC01435A5B4FA40FB52FB11D2C93019680
:1011C000861798F380917D04680F60937D0480E01A
:1011D000089581E008951092CF0781E08093CE07B3
:1011E0001092A90761E084E10E940B0361E085E1B0
:1011F0000E940B03E9EBF0E080818E7F8083808189
:101200008D7F808388E48093B80085E48093BC0060
:101210000895CF93DF9391E090935C048823B9F015
:10122000C091B800D091BA008091BC008A7B8093B5
:10123000BC0060E084E10E940B0360E085E10E9455
:101240000B030E94EB08D093BA00C093B800DF9163
:10125000CF9108958F929F92AF92BF92CF92DF92DB
:10126000EF92FF920F931F93CF93DF93D091BC081F
:10127000D13208F0D7C0182FC091F6070E94D004D1
:101280006B017C018091CF0781116BC082E080935C
:10129000CF071093CE078FEF8093CD071092CC0726
:1012A000D093CB07A6EDB7E0EBEAF7E080E0D813E8
:1012B00091C01092AA078091AA07CC0FC82BC093A7
:1012C000AA078091A907813009F088C01092A90768
:1012D0000E94D0046B017C018091AA078093BB001F
:1012E0008091D1079091D207A091D307B091D407F4
:1012F000892B8A2B8B2BA1F00E94D0040091D1075F
:101300001091D2072091D3073091D4076C197D0931
:101310008E099F09061717072807390708F442C0E6
:101320008091BC0083FDD8CF85EC8093BC000E94E7
:10133000D0046B017C018091CF07823009F450C04A
:101340008091CD078F3F09F46FC08091CD07803227
:1013500009F46CC08091CD07803309F469C084E042
:1013600026C08091D1079091D207A091D307B09168
:10137000D407892B8A2B8B2B09F484CF0E94D004AD
:101380008090D1079090D207A090D307B090D40757
:101390006C197D098E099F0986169706A806B9065D
:1013A00008F070CF8091D0070E94090985E0109263
:1013B000BD081092BC081092D507DF91CF911F9104
:1013C0000F91FF90EF90DF90CF90BF90AF909F90E4
:1013D0008F9008959D9191938F5F69CF85EEA5CFF2
:1013E0008091D1079091D207A091D307B091D407F3
:1013F000892B8A2B8B2B09F49ECF0E94D00400915D
:10140000D1071091D2072091D3073091D4076C19DE
:101410007D098E099F09061717072807390708F065
:101420008ACFC0CF81E0C3CF80E0C1CF82E0BFCF01
:1014300083E0BDCF0895E091BF088091BE08E81712
:1014400030F4F0E0EE52FB4F808190E008958FEF92
:101450009FEF08959091BF088091BE082FEF3FEF56
:10146000981748F4E92FF0E0EE52FB4F208130E06E
:101470009F5F9093BF08C90108958091BE08909125
:10148000BF08891B990B0895CF92DF92EF92FF92CC
:101490000F931F93CF93DF937C01CB018A0120919F
:1014A000D507222389F0EB016B01C40ED51ECC15A4
:1014B000DD0569F06991D701ED91FC910190F08112
:1014C000E02DC7011995F3CF642F0E94C408C8010D
:1014D000DF91CF911F910F91FF90EF90DF90CF9010
:1014E0000895CF93DF931F92CDB7DEB76983209124
:1014F000D5072223F9F02091BC08203258F021E0D2
:1015000030E0FC013383228390E080E00F90DF9194
:10151000CF9108958091BD08E82FF0E0EA52F84F8E
:10152000998190838F5F8093BD088093BC0881E090
:1015300090E0ECCF61E0CE0101960E94C408F7CFA5
:10154000682F80EC98E00C94710AFC01248131E052
:101550003093D5072093F6071092BD081092BC086F
:101560008385862B90E00E94A00A81E00C942A09D2
:1015700090E080E008951F93DC01FB017C911196BF
:101580005C91119712961C91972F990F990F990FB3
:1015900035E5292F239F020E20E0211D1124822FE3
:1015A000672F6074472F407277FD66C0611152C08B
:1015B000411105C0922F9095892F90E004C025E538
:1015C000280F90E08BEA5F3F09F422C0552309F40D
:1015D00074C0509530E0552329F0559F312D1124CA
:1015E00051113F5F432F4095582F549F050E50E0F7
:1015F000511D852F249F020E20E0211D592F549F3D
:10160000050E50E0511D952F1124830F230F930FCA
:101610001F3FD9F030E0112321F0119F312D09F047
:101620003F5F332309F44DC0482F439F040E40E031
:10163000411D842F239F020E20E0211D592F539F0F
:10164000050E50E0511D952F112480832183928334
:101650001F91089541110BC0392F2AEA329F030EC2
:1016600030E0311D11249BEA931B280FA5CF90E099
:101670002095982F80E0A7CF611112C041110CC0B6
:10168000392F2AEA329F030E30E0311D11242BEA54
:10169000231B95E5930FEECF922F909520E093CFEB
:1016A000411106C025E5280F9BEA981B822FF6CF33
:1016B0002AEA280F90E0932FF8CF9FEF2FEF8FEFBC
:1016C000A7CF90E020E080E0C0CF0F931F93CF938F
:1016D000DF9320915B042F5F322F377030935B04D0
:1016E00020FF2BC020E831FD2064347009F0206217
:1016F000205FFC01EC01239600E011E06485662385
:1017000029F070E0C8010E9487326F5F6187322F35
:10171000369F030E30E0311D1124311110C01682A6
:10172000662311F0615061873196EC17FD0731F7A0
:10173000DF91CF911F910F91089520E0D4CF3150C8
:101740003683EECF4F925F927F928F929F92AF92AD
:10175000BF92CF92DF92EF92FF920F931F93CF939E
:10176000DF932C01EB010E94D004F2012785308920
:10177000621B730B6A307105B0F3F8948A819B8108
:10178000181619060CF0CDC1E881F98162B1862ED8
:10179000689485F832B13F7D32B9DB8488852D2D80
:1017A000281B822F28874F85042E000C550BAA81F9
:1017B000BB817E85FC84ED847F5FF394E3949E81FE
:1017C0009F80B984AA841281C12C6C2D0C2D2C2DE4
:1017D0002281112788942111280F08F42FEF819579
:1017E000889470FD120F1795889471FD120F17954C
:1017F000889472FD120F1795889473FD120F179538
:10180000889474FD120F1795889475FD120F179523
:10181000889476FD120F1795889477FD120F17950F
:101820008894622F7111612F8D0D162F002C82B8B4
:1018300000C000C017FF32B920816627889400C01D
:10184000002C32B92111290F00C0002C82B800C031
:1018500000C016FF32B908F42FEF9195889400C0AC
:10186000002C32B9F0FC620F00C0002C82B800C01E
:1018700000C015FF32B967958894F1FC620F00C073
:10188000002C32B96795889400C0002C82B800C043
:1018900000C014FF32B9F2FC620F6795889400C053
:1018A000002C32B9F3FC620F00C0002C82B800C0DB
:1018B00000C013FF32B967958894F4FC620F00C032
:1018C000002C32B96795889400C0002C82B800C003
:1018D00000C012FF32B9F5FC620F6795889400C012
:1018E000002C32B9F6FC620F00C0002C82B800C098
:1018F00000C011FF32B967958894F7FC620F00C0F1
:10190000002C32B96795889400C0002C82B800C0C2
:1019100000C010FF32B9122FF110162F9B0D00C01E
:10192000002C32B900C000C0002C82B800C000C03A
:1019300017FF32B921816627889400C0002C32B984
:101940002111290D00C0002C82B800C000C016FF74
:1019500032B908F42FEFE40FF51F00C0002C32B9A4
:10196000E0FC620F00C0002C82B800C000C015FF70
:1019700032B967958894E1FC620F00C0002C32B93F
:101980006795889400C0002C82B800C000C014FF86
:1019900032B9E2FC620F6795889400C0002C32B91E
:1019A000E3FC620F00C0002C82B800C000C013FF2F
:1019B00032B967958894E4FC620F00C0002C32B9FC
:1019C0006795889400C0002C82B800C000C012FF48
:1019D00032B9E5FC620F6795889400C0002C32B9DB
:1019E000E6FC620F00C0002C82B800C000C011FFEE
:1019F00032B967958894E7FC620F00C0002C32B9B9
:101A00006795889400C0002C82B800C000C010FF09
:101A100032B9122FE110162F919400C0002C32B968
:101A20009A0C00C000C082B800C000C017FF32B9D5
:101A300022816627889400C0002C32B92111280F1A
:101A400000C0002C82B800C000C016FF32B908F4F4
:101A50002FEF8195889400C0002C32B970FD620F81
:101A600000C0002C82B800C000C015FF32B96795D5
:101A7000889471FD620F00C0002C32B9679588947C
:101A800000C0002C82B800C000C014FF32B972FD43
:101A9000620F6795889400C0002C32B973FD620F05
:101AA00000C0002C82B800C000C013FF32B9679597
:101AB000889474FD620F00C0002C32B96795889439
:101AC00000C0002C82B800C000C012FF32B975FD02
:101AD000620F6795889400C0002C32B976FD620FC2
:101AE00000C0002C82B800C000C011FF32B9679559
:101AF000889477FD620F00C0002C32B967958894F6
:101B000000C0002C82B800C000C010FF32B9122FF4
:101B10007111162F8D0D00C0002C32B9119709F0EC
:101B200086CE4A815B8120EE31E0DA010E94A33249
:101B3000DC01CB01F4E0B695A79597958795FA95CA
:101B4000D1F730E020E0B901EAE94E9F040E611DB3
:101B50005E9F600D711D1124650F711D860F971F0B
:101B6000A11DB11D893E43E09407A105B10508F40C
:101B700034C0885E9340A109B10942E0B695A795AB
:101B8000979587954A95D1F747E0849F080E211DC8
:101B9000949F200D311D1124290F311D60915A048D
:101BA00070E0860F971F820F931F4091A1075091FD
:101BB000A2076091A3077091A407292F3327420F32
:101BC000531F611D711D4093A1075093A20760939D
:101BD000A3077093A40780935A0478940E94D004BA
:101BE000F201708B6787DF91CF911F910F91FF906A
:101BF000EF90DF90CF90BF90AF909F908F907F90AD
:101C00005F904F9008950D9A08954F925F927F9242
:101C10008F929F92AF92BF92CF92DF92EF92FF92FC
:101C20000F931F93CF93DF932C01EB010E94D004FD
:101C3000F20127853089621B730B6A307105B0F39E
:101C4000F8948A819B81181619060CF0CDC1E881A1
:101C5000F98162B1862E689486F832B13F7B32B941
:101C6000DB8488852D2D281B822F28874F85042E05
:101C7000000C550BAA81BB817E85FC84ED847F5FBF
:101C8000F394E3949E819F80B984AA841281C12C2D
:101C90006C2D0C2D2C2D2281112788942111280FB9
:101CA00008F42FEF8195889470FD120F1795889492
:101CB00071FD120F1795889472FD120F1795889475
:101CC00073FD120F1795889474FD120F1795889461
:101CD00075FD120F1795889476FD120F179588944D
:101CE00077FD120F17958894622F7111612F8D0D5A
:101CF000162F002C82B800C000C017FF32B9208117
:101D00006627889400C0002C32B92111290F00C029
:101D1000002C82B800C000C016FF32B908F42FEFC3
:101D20009195889400C0002C32B9F0FC620F00C07D
:101D3000002C82B800C000C015FF32B967958894A6
:101D4000F1FC620F00C0002C32B96795889400C086
:101D5000002C82B800C000C014FF32B9F2FC620F40
:101D60006795889400C0002C32B9F3FC620F00C064
:101D7000002C82B800C000C013FF32B96795889468
:101D8000F4FC620F00C0002C32B96795889400C043
:101D9000002C82B800C000C012FF32B9F5FC620FFF
:101DA0006795889400C0002C32B9F6FC620F00C021
:101DB000002C82B800C000C011FF32B9679588942A
:101DC000F7FC620F00C0002C32B96795889400C000
:101DD000002C82B800C000C010FF32B9122FF110E1
:101DE000162F9B0D00C0002C32B900C000C0002C83
:101DF00082B800C000C017FF32B9218166278894DD
:101E000000C0002C32B92111290D00C0002C82B86D
:101E100000C000C016FF32B908F42FEFE40FF51F21
:101E200000C0002C32B9E0FC620F00C0002C82B868
:101E300000C000C015FF32B967958894E1FC620FBD
:101E400000C0002C32B96795889400C0002C82B87D
:101E500000C000C014FF32B9E2FC620F679588949D
:101E600000C0002C32B9E3FC620F00C0002C82B825
:101E700000C000C013FF32B967958894E4FC620F7C
:101E800000C0002C32B96795889400C0002C82B83D
:101E900000C000C012FF32B9E5FC620F679588945C
:101EA00000C0002C32B9E6FC620F00C0002C82B8E2
:101EB00000C000C011FF32B967958894E7FC620F3B
:101EC00000C0002C32B96795889400C0002C82B8FD
:101ED00000C000C010FF32B9122FE110162F9194EC
:101EE00000C0002C32B99A0C00C000C082B800C0FB
:101EF00000C017FF32B922816627889400C0002CE9
:101F000032B92111280F00C0002C82B800C000C0D7
:101F100016FF32B908F42FEF8195889400C0002C89
:101F200032B970FD620F00C0002C82B800C000C042
:101F300015FF32B96795889471FD620F00C0002CBF
:101F400032B96795889400C0002C82B800C000C0E8
:101F500014FF32B972FD620F6795889400C0002C9F
:101F600032B973FD620F00C0002C82B800C000C0FF
:101F700013FF32B96795889474FD620F00C0002C7E
:101F800032B96795889400C0002C82B800C000C0A8
:101F900012FF32B975FD620F6795889400C0002C5E
:101FA00032B976FD620F00C0002C82B800C000C0BC
:101FB00011FF32B96795889477FD620F00C0002C3D
:101FC00032B96795889400C0002C82B800C000C068
:101FD00010FF32B9122F7111162F8D0D00C0002C79
:101FE00032B9119709F086CE4A815B8120EE31E04B
:101FF000DA010E94A332DC01CB01F4E0B695A7958B
:1020000097958795FA95D1F730E020E0B901EAE994
:102010004E9F040E611D5E9F600D711D1124650FA2
:10202000711D860F971FA11DB11D893E43E09407C6
:10203000A105B10508F434C0885E9340A109B10937
:1020400042E0B695A795979587954A95D1F747E0D1
:10205000849F080E211D949F200D311D1124290FEE
:10206000311D60915A0470E0860F971F820F931FF5
:102070004091A1075091A2076091A3077091A40716
:10208000292F3327420F531F611D711D4093A10754
:102090005093A2076093A3077093A40780935A04F8
:1020A00078940E94D004F201708B6787DF91CF9102
:1020B0001F910F91FF90EF90DF90CF90BF90AF9066
:1020C0009F908F907F905F904F9008950E9A089503
:1020D0006F927F928F92CF92DF92EF92FF920F9347
:1020E0001F93CF93DF93CDB7DEB762970FB6F89407
:1020F000DEBF0FBECDBF6C017A013801822EDC013C
:102100001C962C91CA0157FF04C088279927841B6D
:10211000950B7A8369839C838B839E838D836D86E5
:102120007E868F86213049F5CE0101960E94650B8F
:1021300083E0888B1A8A198AF7FE02C08DEF888B9C
:10214000D601ED91FC910484F585E02DBE016F5F11
:102150007F4FC601199562960FB6F894DEBF0FBE89
:10216000CDBFDF91CF911F910F91FF90EF90DF9046
:10217000CF908F907F906F9008951C861B861A8653
:10218000198618861F82D4CFEF92FF920F931F9368
:10219000CF93DF93CDB7DEB762970FB6F894DEBF6B
:1021A0000FBECDBF7C01DC011C968C917A836983C4
:1021B0005C834B835E834D830D871E872F87813021
:1021C000F9F4CE0101960E94650B188A1A8A198AC1
:1021D000D701ED91FC910484F585E02DBE016F5F80
:1021E0007F4FC701199562960FB6F894DEBF0FBEF8
:1021F000CDBFDF91CF911F910F91FF90EF90089588
:102200001C861B861A86198618861F82DECF8F923F
:102210009F92AF92BF92CF92DF92EF92FF920F9375
:102220001F93CF93DF93EC016A017B018C010E5F5A
:102230001F4FC8010E940704882321F18A81811160
:1022400003C0C8010E9407046F8170E090E080E045
:102250000E94942F4B015C016B817C81072E000C46
:10226000880B990B0E94942F20E030E040E85DE35A
:102270000E94F32F9B01AC01C501B4010E948D2F78
:1022800087FF14C0C8010E94F3031F8A6F898881E9
:10229000DF91CF911F910F91FF90EF90DF90CF9042
:1022A000BF90AF909F908F900C940B03C8010E9439
:1022B000F3038E850C851D85811135C0F8010081E1
:1022C0001181B801012E000C880B990B0E94942FEC
:1022D0004B015C0120E030E040E251E4C701B6016F
:1022E0000E94F32F9B01AC01C501B4010E944F3243
:1022F0001816BCF481E08F8B01501109C701B6019B
:102300000E9419322AE0269FA001279F500D112418
:102310000417150709F0BACF81E08E871A8A198A47
:10232000B5CF1F8AE9CF20E030E040E251E4C70199
:10233000B6010E94F32F6B017C01F801608171816D
:10234000072E000C880B990B0E94942F4B015C0107
:10235000AC019B01C701B6010E944F3218160CF068
:1023600058C089899A898937FCEE9F070CF451C0BF
:10237000885E93409A8B898B8F89882329F10E94EC
:1023800027050B891C892D893E89AB01BC01401BA7
:10239000510B620B730B8F85988929893A89820FBB
:1023A000931F092E000CAA0BBB0B84179507A607D9
:1023B000B70738F41F8A0E9427056B8B7C8B8D8BA7
:1023C0009E8B8F89811162CF0E9427050B891C8902
:1023D0002D893E89AB01BC01401B510B620B730B75
:1023E0008F85988929893A89821B930B092E000CC5
:1023F000AA0BBB0B84179507A607B70708F046CFB3
:1024000081E08F8B0E9427056B8B7C8B8D8B9E8B45
:102410003DCFA5019401C701B6010E948D2F87FF12
:10242000ABCF89899A89883823E192070CF0A4CF31
:1024300088519C4F9FCF8091FF099091000A209175
:10244000030A3091040A8531910534F08451809358
:10245000F4042093F5040895885D8093F404211515
:10246000310521F487E18093F50408952150F1CFDF
:102470004F925F926F927F92AF92BF92CF92DF9214
:10248000EF92FF920F931F93CF93DF9300D0CDB7BE
:10249000DEB78C017B016A01B22E8FEF80937B0740
:1024A0000E942705409056045090570460905804AD
:1024B00070905904AB01BC014419550966097709AC
:1024C000463951056105710508F45FC0D301C201A9
:1024D0008A569F4FAF4FBF4F809356049093570437
:1024E000A0935804B093590460910902633780F5B2
:1024F000F6018081F7019081F801208129839A8378
:102500008B8381E0860F8093090283E0A82E6A9D69
:10251000B0011124625E794FCE0101960E94BB0A80
:10252000F6018081F7019081F801208129839A8347
:102530008B83609108028FEF860F809308026A9D5B
:10254000B0011124625E794FCE0101960E94BB0A50
:10255000809109028F34C8F060915504F6018081A2
:10256000F7019081F801208129839A838B8381E090
:10257000860F80935504F3E06F9FB0011124605ED5
:102580007A4FCE0101960E94BB0A80915504883291
:1025900069F48B2D90E0909383078093820789E301
:1025A0008093080280930902109255040F900F90B7
:1025B0000F90DF91CF911F910F91FF90EF90DF90DF
:1025C000CF90BF90AF907F906F905F904F900895A5
:1025D00090E080E00895FC018585968508950F932D
:1025E0001F93CF93DF9300D0CDB7DEB7AB01198235
:1025F0001A821B82DC01ED91FC910190F081E02DAB
:1026000000E010E020E0BE016F5F7F4F19950F9052
:102610000F900F90DF91CF911F910F910895FC01C2
:1026200085E492E091838083138212828FEF868308
:102630008783808781878287838781E08487168666
:102640001586158214828091080890910908892BBB
:1026500021F4F0930908E0930808A0915304B09185
:102660005404109721F01596FC93EE931497F09371
:102670005404E093530408954091060250910702D8
:1026800025E038E0429FC001439F900D529F900D7E
:102690001124875E994C9093070280930602890F5C
:1026A00008958F929F92AF92BF92CF92DF92EF9256
:1026B000FF928091040290910502892B71F10E9492
:1026C000D0044B015C0180914E0490914F04A09185
:1026D0005004B091510475016401C81AD90AEA0A7C
:1026E000FB0A80924E0490924F04A0925004B09244
:1026F0005104C114D10481E0E806F10428F48FEFFD
:10270000C8168FE3D80640F18091520481110EC0A3
:10271000809152048F5F80935204FF90EF90DF907E
:10272000CF90BF90AF909F908F900895809152046A
:10273000813099F380915204815080935204109219
:1027400005021092040280924A0490924B04A092D7
:102750004C04B0924D04E1CF809152048823E9F2F9
:10276000809152048230B0F1209104023091050230
:10277000C901880F991F820F931F9695879596958B
:102780008795E0E0C816D90670F0C601880F991F3A
:102790008C0D9D1D9695879596958795E2E0281757
:1027A000390708F0E1E020910002309101024091E8
:1027B00002025091030263E971E080E091E00E941F
:1027C000C7306E276093000270930102809302026B
:1027D00090930302809152048F5F80935204809102
:1027E00052048F3F09F4ABCFD0920502C09204028D
:1027F00094CF0F931F93CF938C01C62F0E94A50AED
:102800006C2F6460C8010E94A50A6C2F6B7FC80101
:102810000E94A50A83EC90E00197F1F7CF911F91F8
:102820000F9108950F931F93CF93DF938C01D62FB1
:10283000C42F607F642B0E94F91380E1D89FB00100
:1028400011246C2BC801DF91CF911F910F910C9433
:10285000F91341E00E94121481E090E00895CF93B3
:10286000DF9300D000D01F921F92CDB7DEB798E063
:10287000E9E3F2E0DE01119601900D929A95E1F7FD
:102880009091100A961710F46FEF690F262F30E021
:10289000220F331F41E050E04C0F5D1F240F351F06
:1028A000F9016081680F606840E088E09AE028964E
:1028B0000FB6F894DEBF0FBECDBFDF91CF910C9461
:1028C000121440E061E088E09AE00E9412148BE369
:1028D0009FE10197F1F708951F93CF93DF93109134
:1028E000180AC091190AD0911A0ACE010E94B1307B
:1028F000181721F0612FCE010E94B93080E0DF91DE
:10290000CF911F9108950F931F93CF93DF938C0165
:10291000EB010E94B1308883C80101960E94B1305A
:102920008983CE01DF91CF911F910F910895BC0152
:10293000FC01828193810E94831480E00895FF92BC
:102940000F931F93CF93DF93EC018B01FB01F0807A
:102950000E94B130F81621F06F2DCE010E94B930DF
:10296000F801F1802196CE010E94B130F81621F0D5
:102970006F2DCE010E94B930C801DF91CF911F9118
:102980000F91FF90089564E17AE08091160A90918A
:10299000170A0E949F1480E00895BC01FC01828107
:1029A00093810E949F1480E00895FB010190002014
:1029B000E9F73197AF01461B570BDC01ED91FC9114
:1029C0000280F381E02D19948F929F92AF92BF9273
:1029D0000F931F93CF93DF93CDB7DEB7A1970FB6B9
:1029E000F894DEBF0FBECDBF19A2423008F44AE012
:1029F0008E010F5D1F4F842E912CB12CA12CA501AF
:102A000094010E94D730E62FB901CA01EA3004F5DB
:102A1000E05DD801EE938D01232B242B252B79F734
:102A200090E080E0109729F0BD0188E09AE00E94D4
:102A3000D514A1960FB6F894DEBF0FBECDBFDF91BF
:102A4000CF911F910F91BF90AF909F908F9008955D
:102A5000E95CDFCF4F925F926F927F928F929F924D
:102A6000AF92BF92CF92DF92EF92FF920F931F939C
:102A7000CF936B017C01742EAC019B010E945432F8
:102A800067EB72E0811126C046015701E894B7F860
:102A90002FEF3FEF4FE75FE7C501B4010E945432CB
:102AA00081110CC02FEF3FEF4FE75FE7C501B40185
:102AB0000E948D2F6BEB72E0181664F02FEF3FEF42
:102AC0004FE75FE4C701B6010E944F321816ACF41D
:102AD0006FEB72E088E09AE0CF911F910F91FF9029
:102AE000EF90DF90CF90BF90AF909F908F907F90AE
:102AF0006F905F904F900C94D5142FEF3FEF4FE7FE
:102B00005FECC701B6010E948D2F87FDE1CF20E069
:102B100030E0A901C701B6010E948D2F10E000E04E
:102B200087FF0CC041E06DE288E09AE00E94121439
:102B3000F7FAF094F7F8F09401E010E0C0E060E0FC
:102B400070E080E09FE37C1641F020E030E040E25E
:102B500051E40E94A731CF5FF6CFA70196010E94F2
:102B60003B314B015C010E9420322B013C014AE0C9
:102B70000E94E414080F191FCC23C9F1C301B2014C
:102B80000E94922F9B01AC01C501B4010E943A3111
:102B90004B015C0141E06EE288E09AE00E94121471
:102BA0000F5F1F4FC15018F120E030E040E251E4C8
:102BB000C501B4010E94F32F2B013C010E94203279
:102BC0004B01B12CA12C4AE0C501B4010E94E414D0
:102BD000080F191FC501B4010E94922F9B01AC017F
:102BE000C301B2010E943A314B015C01DBCFC80145
:102BF000CF911F910F91FF90EF90DF90CF90BF90FA
:102C0000AF909F908F907F906F905F904F900895BE
:102C1000CF93DF93BC018EE098E00E94D514EC01C5
:102C200063EC72E08EE098E00E94D5148C0F9D1F3B
:102C3000DF91CF9108956115710511F00C94D514B1
:102C400090E080E00895CF92DF92EF92FF92C090E3
:102C5000FE07D090FF07E0900008F0900108209157
:102C6000FA073091FB074091FC075091FD07C7011F
:102C7000B6010E948D2F811109C02091F907809122
:102C8000F7079091F8072817190649F1C092FA073B
:102C9000D092FB07E092FC07F092FD0766EC72E031
:102CA00088E09AE00E941B166091FE077091FF0772
:102CB000809100089091010841E00E942A1541E0AE
:102CC0006FED88E09AE00E94121464ED72E088E0F3
:102CD0009AE0FF90EF90DF90CF900C941B16FF903E
:102CE000EF90DF90CF9008950E94CF3385ED8093D1
:102CF000BC008091D1079091D207A091D307B091E9
:102D0000D4070796A11DB11D23E0B695A795979509
:102D100087952A95D1F72091BC0024FD03C010921D
:102D2000CF0708954091D1075091D2076091D30702
:102D30007091D407452B462B472B69F30097A105CB
:102D4000B10541F02AE22A95F1F700C00197A109E7
:102D5000B109E1CF8091D0070C9409091F920F921D
:102D60000FB60F9211242F933F938F939F93AF939E
:102D7000BF938091A1079091A207A091A307B09162
:102D8000A4073091A00723E0230F2D3758F50196B3
:102D9000A11DB11D2093A0078093A1079093A207C6
:102DA000A093A307B093A4078091A5079091A607CD
:102DB000A091A707B091A8070196A11DB11D80930E
:102DC000A5079093A607A093A707B093A807BF9164
:102DD000AF919F918F913F912F910F900FBE0F90C8
:102DE0001F90189526E8230F0296A11DB11DD2CF82
:102DF0001F920F920FB60F9211240BB60F922F93C2
:102E00003F934F935F936F937F938F939F93AF9372
:102E1000BF93EF93FF93E0911802F0911902199577
:102E2000FF91EF91BF91AF919F918F917F916F91A2
:102E30005F914F913F912F910F900BBE0F900FBE5E
:102E40000F901F9018951F920F920FB60F9211249A
:102E50000BB60F922F933F934F935F936F937F9394
:102E60008F939F93AF93BF93EF93FF93E0911602DD
:102E7000F09117021995FF91EF91BF91AF919F913A
:102E80008F917F916F915F914F913F912F910F9013
:102E90000BBE0F900FBE0F901F9018951F920F92B0
:102EA0000FB60F9211240BB60F922F933F934F93AF
:102EB0005F936F937F938F939F93AF93BF93EF93A2
:102EC000FF93E0910C02F0910D021995FF91EF91A3
:102ED000BF91AF919F918F917F916F915F914F9132
:102EE0003F912F910F900BBE0F900FBE0F901F9030
:102EF00018951F920F920FB60F9211240BB60F92D6
:102F00002F933F934F935F936F937F938F939F93F1
:102F1000AF93BF93EF93FF93E0910A02F0910B02FE
:102F20001995FF91EF91BF91AF919F918F917F91F3
:102F30006F915F914F913F912F910F900BBE0F902A
:102F40000FBE0F901F9018951F920F920FB60F9201
:102F500011240BB60F922F933F934F935F936F9370
:102F60007F938F939F93AF93BF93EF93FF93E091E2
:102F70001402F09115021995FF91EF91BF91AF9155
:102F80009F918F917F916F915F914F913F912F9181
:102F90000F900BBE0F900FBE0F901F9018951F92B1
:102FA0000F920FB60F9211240BB60F922F933F93EF
:102FB0004F935F936F937F938F939F93AF93BF9341
:102FC000EF93FF93E0911202F09113021995FF9194
:102FD000EF91BF91AF919F918F917F916F915F9191
:102FE0004F913F912F910F900BBE0F900FBE0F90FE
:102FF0001F9018951F920F920FB60F9211240BB6C7
:103000000F922F933F934F935F936F937F938F9381
:103010009F93AF93BF93EF93FF93E0911002F091D2
:1030200011021995FF91EF91BF91AF919F918F91EF
:103030007F916F915F914F913F912F910F900BBEB8
:103040000F900FBE0F901F9018951F920F920FB602
:103050000F9211240BB60F922F933F934F935F93D0
:103060006F937F938F939F93AF93BF93EF93FF9350
:10307000E0910E02F0910F021995FF91EF91BF912F
:10308000AF919F918F917F916F915F914F913F9100
:103090002F910F900BBE0F900FBE0F901F901895A1
:1030A0001F920F920FB60F9211240BB60F922F930F
:1030B0003F934F935F936F937F938F939F93AF93C0
:1030C000BF93EF93FF9383ED98E00E940708FF9171
:1030D000EF91BF91AF919F918F917F916F915F9190
:1030E0004F913F912F910F900BBE0F900FBE0F90FD
:1030F0001F9018951F920F920FB60F9211240BB6C6
:103100000F922F938F939F93EF93FF93E091E30898
:10311000F091E4088081E091E908F091EA0882FDED
:103120001DC090818091EC088F5F8F732091ED0816
:10313000821741F0E091EC08F0E0ED52F74F958FE7
:103140008093EC08FF91EF919F918F912F910F90B9
:103150000BBE0F900FBE0F901F9018958081F2CF7D
:103160001F920F920FB60F9211240BB60F922F934E
:103170003F934F935F936F937F938F939F93AF93FF
:10318000BF93EF93FF938EE098E00E940708FF91B2
:10319000EF91BF91AF919F918F917F916F915F91CF
:1031A0004F913F912F910F900BBE0F900FBE0F903C
:1031B0001F9018951F920F920FB60F9211240BB605
:1031C0000F922F938F939F93EF93FF93E0911E089D
:1031D000F0911F088081E0912408F091250882FD7C
:1031E0001DC09081809127088F5F8F7320912808E0
:1031F000821741F0E0912708F0E0E25FF74F958FEA
:1032000080932708FF91EF919F918F912F910F90BD
:103210000BBE0F900FBE0F901F9018958081F2CFBC
:103220001F920F920FB60F9211240BB60F922F938D
:103230003F934F935F936F937F938F939F93AF933E
:10324000BF93EF93FF938091B900887F803609F494
:103250004DC008F040C0883209F4A9C028F580317B
:1032600009F49DC0C8F4882309F4FBC0883009F430
:1032700096C0FF91EF91BF91AF919F918F917F91F8
:103280006F915F914F913F912F910F900BBE0F90D7
:103290000FBE0F901F901895883109F488C08032B6
:1032A00041F78093CD0714C0803409F49DC040F4E9
:1032B0008033B9F38833E9F68093CD0785ECB0C04D
:1032C000803509F485C0883509F496C0883489F6BC
:1032D0000E947616CECF883909F48CC038F588372D
:1032E00029F050F4883611F0803719F683E0809386
:1032F000CF0710929F0457C0883809F47BC08039EB
:1033000019F0803809F0B5CF80919F04803208F021
:1033100071C0E0919F0481E08E0F80939F048091A3
:10332000BB00F0E0E158FB4F80833DC0803B39F0AB
:10333000E0F4803A09F479C0883A09F09ACF84E041
:103340008093CF0710927E0410927D04E091BA081A
:10335000F091BB08199580917D0481110FC081E027
:1033600080937D0410925D0409C0803C09F4A6CFCF
:10337000883C09F4A3CF883B09F07BCFE0917E0421
:1033800081E08E0F80937E04F0E0E35AFB4F808152
:103390008093BB0090917E0480917D0429C0809130
:1033A000AA078093BB0085EC8093BC0062CF90910C
:1033B000CC078091CB07981758F5E091CC0781E0B6
:1033C0008E0F8093CC07F0E0E555F84F8081E9CF70
:1033D000E091CC0781E08E0F8093CC078091BB00F9
:1033E000F0E0E555F84F80839091CC078091CB07B2
:1033F0009817C8F285E8D8CFE091CC0781E08E0F0E
:103400008093CC078091BB00F0E0E555F84F8083B6
:103410008091CE0781115CCF81E08093A90784EA77
:103420008093BC001092CF0724CF85EC8093BC0022
:103430001092CF0780919F04803230F4E0919F0476
:10344000F0E0E158FB4F108260919F0470E0E09142
:10345000B808F091B9088FE794E0199510929F048D
:1034600008CF1092CD0734CFDF92EF92FF920F93E7
:103470001F93CF93DF93C3EDD8E01B821A8288EEAF
:1034800093E0A0E0B0E08C839D83AE83BF832BE804
:1034900032E03983288345E351E05D874C8744E37C
:1034A00051E05F874E8740E351E0598B488B41E301
:1034B00051E05B8B4A8B42E351E05D8B4C8B46E3E2
:1034C00051E05F8B4E8B198E1A8E1B8E1C8EEEE098
:1034D000F8E01382128284839583A683B7833183B5
:1034E000208325EC30E03587248724EC30E03787D3
:1034F000268720EC30E0318B208B21EC30E0338BC1
:10350000228B22EC30E0358B248B26EC30E0378B9D
:10351000268B118E128E138E148EE0ECF8E013823F
:10352000128284839583A683B7838DE992E0918389
:103530008083EBEAF8E08FEF808312821182148699
:1035400013868FEF9FEFDC0187839087A187B28777
:1035500000912D0210912E02EBE2FAE082ED90E054
:103560009183808313830283E7E2FAE08EEB90E09D
:1035700091838083C801029693838283E3E2FAE019
:1035800088EC90E09183808398012C5F3F4F3383D8
:103590002283EFE1FAE091838083C801069693834A
:1035A0008283EBE1FAE084E190E091838083C801BB
:1035B000089693838283E8E1FAE010820296928370
:1035C0008183E4E1FAE086E090E091838083C801A2
:1035D0000B9693838283E8E0FAE0138212828FEAEB
:1035E00092E09183808387E2848384E1818784E011
:1035F0008287138688E68093070A1092BF0810928C
:10360000BE081092BD081092BC080E94EB0889E128
:1036100092E09093BB088093BA088AE192E090937D
:10362000B9088093B808E3E0FAE08AE090E091837B
:103630008083C8010D9693838283049690932E0213
:1036400080932D02EFEFF9E082E390E09183808395
:10365000015F1F4F138302830AEE19E0F801108601
:1036600011861286138614861586168681E4808359
:1036700080E481838AE2828362E081E40E943903EC
:1036800062E0F80181810E94390362E0F8018281E1
:103690000E94390302ED19E086E190E0F801918380
:1036A000808385E292E09683858360E088E10E94D2
:1036B000390360E088E10E940B038AE5D82EF80107
:1036C000D78290E7E92E97E1F92EF08AE786128AF1
:1036D000118A61E080810E94390360E0F8018081F5
:1036E0000E940B030AEB19E087E190E0F801918357
:1036F00080838DE192E09683858360E088E10E947B
:10370000390360E088E10E940B03F801D782F08A58
:10371000E786128A118A61E080810E94390360E0A5
:10372000F80180810E940B03A7EAB9E086E31596B1
:103730008C9315978BE016968C931697E7EBF3E036
:10374000E4911796EC931797E1E7F3E0E49118966C
:10375000EC93189740E85EE360E070E01D964D93AF
:103760005D936D937C93509784E290E09093A509CC
:103770008093A40961E00E943903E0E7F9E016A60E
:1037800015A617A610AA11AA12AA13AAD1A7C0A7F4
:1037900084E690E094A783A78BE382A7ACECB8E023
:1037A00013961C921E9212971196FC93EE938EE53F
:1037B00014968C93DF91CF911F910F91FF90EF9012
:1037C000DF900895CF93DF93CDB7DEB76C970FB638
:1037D000F894DEBF0FBECDBF789484B5826084BDFF
:1037E00084B5816084BD85B5826085BD85B5816005
:1037F00085BD80916E00816080936E001092810083
:10380000809181008260809381008091810081603D
:1038100080938100809180008160809380008091FE
:10382000B10084608093B1008091B000816080938A
:10383000B00080919100826080939100809191000E
:1038400081608093910080919000816080939000CE
:103850008091A10082608093A1008091A10081608D
:103860008093A1008091A00081608093A00080914E
:1038700021018260809321018091210181608093E8
:1038800021018091200181608093200180917A0044
:10389000846080937A0080917A00826080937A00BD
:1038A00080917A00816080937A0080917A008068AC
:1038B00080937A001092C100E0911E08F0911F08D9
:1038C00022E02083E0911A08F0911B081082E09119
:1038D0001C08F0911D088FEC808310922608E0915F
:1038E0002208F091230896E09083E0912008F0915F
:1038F0002108808180618083E0912008F091210877
:10390000808188608083E0912008F0912108808187
:1039100080688083E0912008F091210880818F7D6C
:103920008083E091E308F091E4082083E091DF08D0
:10393000F091E0081082E091E108F091E20880E166
:1039400080831092EB08E091E708F091E8089083FB
:10395000E091E508F091E608808180618083E09144
:10396000E508F091E608808188608083E091E508B1
:10397000F091E608808180688083E091E508F0910D
:10398000E60880818F7D808360E082E40E943903B5
:1039900060E08FE20E94390360E08FE00E9439030B
:1039A0008091B104811111C080EA94E00E940F134C
:1039B0001092B0041092AF0485E592E09093A104B8
:1039C0008093A00481E08093B10480EA94E00E9497
:1039D000030E8EE196E09093A3048093A20483E704
:1039E00090E09093AE048093AD048091AE089091E6
:1039F000AF08A091B008B091B108843C29E09207CB
:103A0000A105B10520F484EC99E0A0E0B0E080933A
:103A1000AE089093AF08A093B008B093B1088FEFB1
:103A20008093A60480EB8093A70480EF8093A80482
:103A30008091CA04811111C089EB94E00E940F1398
:103A40001092C9041092C80487E692E09093BA04D9
:103A50008093B90481E08093CA0489EB94E00E94CA
:103A6000661080E295E09093BC048093BB0488E2EA
:103A700090E09093C7048093C6048091AE08909123
:103A8000AF08A091B008B091B108843C39E0930729
:103A9000A105B10520F484EC99E0A0E0B0E08093AA
:103AA000AE089093AF08A093B008B093B1088FEF21
:103AB0008093BF0480EB8093C00480EF8093C104A7
:103AC0001092AB080E9427028091AB080E94330538
:103AD0001092BF081092BE081092BD081092BC0848
:103AE0000E94EB0889E192E09093BB088093BA08AA
:103AF0008AE192E09093B9088093B80810920D0A79
:103B00008091120A823018F098E090930D0A809309
:103B1000100A62E370E080E090E00E94F50460919A
:103B2000130A88E09AE00E94A50A68EE73E080E03C
:103B300090E00E94F50460E388E09AE00E94F913A7
:103B40000BE416E4C8010197F1F760E388E09AE01E
:103B50000E94F913C8010197F1F760E388E09AE049
:103B60000E94F91383E592E00197F1F760E288E0A3
:103B70009AE00E94F91360910D0A606240E088E0CB
:103B80009AE00E94121484E080930E0A40E06CE0F8
:103B900088E09AE00E9412140E94611482E08093EF
:103BA0000F0A40E066E088E09AE00E94121440E0CC
:103BB00062E088E09AE00E9412148BE39FE1019793
:103BC000F1F70E94611488E08093130A60E088E0B6
:103BD0009AE00E94A50A60E080E00E942F1467ED41
:103BE00072E088E09AE00E941B1660EE72E088E0C6
:103BF0009AE00E941B1666EE72E088E09AE00E944E
:103C00001B1662E082E10E94390381E593E1909303
:103C1000150280931402809169008F7380648093F1
:103C20006900EB9A62E08091AC090E9439030E941E
:103C30002705605D7740810991096093B009709311
:103C4000B1098093B2099093B30987E38093B909CE
:103C500080E991E09093FA098093F9090E941B1280
:103C600090E080E00E94B130813009F4C3C081E06F
:103C700090E09A838983BE016F5F7F4F90E080E080
:103C80000E949F148BE29AE00E94CD1487E29AE092
:103C90000E94CD1483E29AE00E94CD148FE19AE055
:103CA0000E94CD148BE19AE00E94CD140E94C314AF
:103CB0000E946C146CEE72E08EE098E00E941B167D
:103CC00062EE73E08EE098E00E941B1682E493E0BF
:103CD0000E94081660ED77E080E090E00E94F50415
:103CE0000E94611488248394AA24A394B12C809107
:103CF000070A8092D5078093F6071092BD081092AC
:103D0000BC0890E080E00E94A00A81E00E942A099D
:103D1000182F811130C10091070A0E94D0046B0155
:103D20007C018091CF0781118CC08092CF07809257
:103D3000CE078FEF8093CD071092CC0786E080935B
:103D4000CB078092AA078091AA07000F082B009347
:103D5000AA078091A907813009F09EC11092A90796
:103D60000E94D0046B017C018091AA078093BB0064
:103D70008091D1079091D207A091D307B091D40739
:103D8000892B8A2B8B2BA1F00E94D0044090D10765
:103D90005090D2076090D3077090D4076C197D09BA
:103DA0008E099F09461657066806790608F46AC008
:103DB0008091BC0083FDD8CF85EC8093BC000E942D
:103DC000D0046B017C018091CF07813009F466C17A
:103DD0008091CC07873008F083C18091CC07ABEA93
:103DE000B7E0E2EDF4E0181709F450C09D9191930B
:103DF0001F5FF9CF8BE29AE00E94971487E29AE066
:103E00000E94971483E29AE00E9497148FE19AE04F
:103E10000E9497148BE19AE00E94971464E17AE083
:103E20008091160A9091170A0E9483148091190AB2
:103E300090911A0A0E94B1308093180A63E073E0EF
:103E40003BCF8091D1079091D207A091D307B09139
:103E5000D407892B8A2B8B2B09F463CF0E94D004C3
:103E60004090D1075090D2076090D3077090D4074C
:103E70006C197D098E099F09461657066806790652
:103E800008F04FCF8091D0070E9409091092BF0817
:103E90001093BE0880EC98E00E942A0A9C01A4E0DE
:103EA00035952795AA95E1F72F7033271AE08F7083
:103EB000282E129F200C112480EC98E00E942A0AE0
:103EC0009C01B4E035952795BA95E1F72F7033271B
:103ED0008F70129F800D11248F8B80EC98E00E94D0
:103EE0002A0A982F9F70F4E15F2E590E85FD05C0B8
:103EF000592E84FF02C04AE0540E80EC98E00E94E4
:103F00002A0A482E80EC98E00E942A0A9C0164E06C
:103F1000359527956A95E1F72F7033271AE08F7052
:103F2000129F800D11248E8B80EC98E00E942A0A4B
:103F30009C0174E0359527957A95E1F72F7033272A
:103F40008F70129F800D1124888F80EC98E00E9462
:103F50002A0A9C01E4E035952795EA95E1F72F7050
:103F600033278F70129F800D112490E0DC01A05345
:103F7000B84FBA8FA98F20929807BF89B09399073D
:103F800050929A0740929B07EE89E0939C07F88D28
:103F9000F0939D07298D3A8D30939F0720939E07BC
:103FA0008091140A9091150A8430910509F407C292
:103FB00008F098C08130910509F408C1823091055C
:103FC00009F4C3C10E94270500910D0510910E054B
:103FD00020910F0530911005AB01BC01401B510B26
:103FE000620B730B483E53406105710598F1D9018E
:103FF000C80188519C4FAF4FBF4F80930D059093E0
:104000000E05A0930F05B093100582E40E94B3043F
:104010009C01990F440B550B2F5F33404109510907
:10402000AFEFB0E00E94183129EC3CEF4FEF5FEFAB
:104030000E94F930F22EE32E022F132F61E084E06C
:104040000E9439030115110509F0D8C160E084E030
:104050000E940B030091F90710E0E090F707F09041
:10406000F8070E151F0511F40C940A2D0E94611417
:1040700098E0E916F10408F019C3F7018827EC5B12
:10408000FF4D8F4F0C949B32D7223E2447255A2553
:1040900061250E255623B72585EE8FCE8091D10759
:1040A0009091D207A091D307B091D407892B8A2B86
:1040B0008B2B09F488CE0E94D0044090D1075090F9
:1040C000D2076090D3077090D4076C197D098E09D0
:1040D0009F09461657066806790608F074CED2CEB8
:1040E00087E07DCE8630910509F4F4C087309105D4
:1040F00009F068CF2091FF04309100052730310589
:10410000C1F02FE13AE03093DF092093DE091092ED
:10411000E0093093C7092093C6091092C80925E029
:1041200030E03093830720938207909300058093BB
:10413000FF048FE20E94E202892B61F11091F204E8
:104140000E942705C090FB04D090FC04E090FD0481
:10415000F090FE046C197D098E099F0961347F413E
:1041600081059105B8F00E9427056093FB047093C8
:10417000FC048093FD049093FE041F5F1093F204EF
:10418000133041F4B092150AA092140A0E94C3148D
:104190001092F2048091F204882309F413CF0E9454
:1041A00027050091FB041091FC042091FD0430913F
:1041B000FE04601B710B820B930B61337547810505
:1041C000910508F4FFCE1092F204FCCE2091FF047A
:1041D000309100052130310509F452C02BE23AE05C
:1041E0003093DF092093DE091092E0093093C7096C
:1041F0002093C6091092C809909383078093820781
:104200000E942705611571058105910511F00E9435
:10421000C22D0E94732D20E031E040E050E00E946A
:10422000F93060937C070E94D00461157105810507
:10423000910511F00E94C22D0E94732D26E530E0F9
:1042400040E050E00E94F93066557F4F8F4F9F4FFE
:1042500060937D070E942705611571058105910511
:1042600011F00E94C22D10921105B0920005A0928B
:10427000FF041092A60961E08091A4090E940B033B
:104280008FE20E94E202892B51F00E942705609381
:10429000FB047093FC048093FD049093FE040E9441
:1042A00027050091FB041091FC042091FD0430913E
:1042B000FE04601B710B820B930B603E73498440BC
:1042C000910508F47FCE86E090E09093150A8093E4
:1042D000140A38C02091FF043091000526303105C2
:1042E000E9F0A3E2BAE0B093DF09A093DE091092EF
:1042F000E009B093C709A093C6091092C8091092AB
:10430000830710928207909300058093FF048092A8
:10431000A60960E08091A4090E940B038FE20E942D
:10432000E202892B09F44ECE0E9427056093FB041C
:104330007093FC048093FD049093FE04B092150AE0
:10434000A092140A0E94C3143DCE2091FF04309124
:10435000000522303105F9F028E030E03093830782
:1043600020938207909300058093FF0487E29AE0F0
:104370009093DF098093DE091092E0099093C709BA
:104380008093C6091092C8091092A60961E0809135
:10439000A4090E940B038091180A882309F412CE05
:1043A0009091F4048091990798130CCE9091F504A4
:1043B00080919A07981306CE87E090E086CF2091EF
:1043C000FF04309100052430310509F4FBCD9093B2
:1043D00000058093FF042BE13AE03093DF0920933E
:1043E000DE091092E0093093C7092093C6091092A4
:1043F000C8091092830710928207E4CD0F3F110580
:1044000011F461E024CEEFEDF2E0E491E150E2310D
:1044100008F0C8C0F0E08827EF5EFD4D8F4F0C9488
:104420009B32232228222D2239224522D2225122B8
:10443000592261226D22792285229622A222D2223D
:10444000AE22BA22C62284B5806884BDF7BC02CEF3
:1044500084B5806284BDF8BCFDCD80918000806809
:10446000809380008F2D9E2D9093890080938800EB
:10447000F1CD809180008062809380008F2D9E2DF1
:1044800090938B0080938A00E5CD809180008860B6
:10449000809380008F2D9E2D90938D0080938C00B3
:1044A000D9CD8091B00080688093B000F092B300C5
:1044B000D1CD8091B00080628093B000F092B400C2
:1044C000C9CD809190008068809390008F2D9E2DA3
:1044D0009093990080939800BDCD80919000806268
:1044E000809390008F2D9E2D90939B0080939A0037
:1044F000B1CD809190008860809390008F2D9E2D8B
:1045000090939D0080939C00A5CD8091A000806831
:104510008093A0008091A0008F7B8093A0008F2DBE
:104520009E2D9093A9008093A80094CD8091A00027
:1045300080628093A0008F2D9E2D9093AB0080937E
:10454000AA0088CD8091A00088608093A0008F2D64
:104550009E2D9093AD008093AC007CCD8091200186
:104560008068809320018F2D9E2D90932901809348
:10457000280170CD809120018062809320018F2DD1
:104580009E2D90932B0180932A0164CD8091200170
:104590008860809320018F2D9E2D90932D01809314
:1045A0002C0158CD003811050CF02BCF4FCD60E019
:1045B00080E00E942F1430919807809101053813F4
:1045C00002C0012B31F13093010580919A072AE056
:1045D000622F0E945932805D8983905D9A834AE3FD
:1045E0004B83809199070E945932805D8C83905D46
:1045F0009D834E83832F0E945932805D8F83905D0F
:1046000098871986BE016F5F7F4F88E09AE00E940D
:104610001B1661E080E00E942F142091F907809121
:10462000F7079091F8072817190669F168E173E018
:1046300088E09AE00E941B168091030A9091040A78
:104640002AE030E0B9010E948732605D6093020584
:10465000805D809303058AE3809304058091FF09C0
:104660009091000AB9010E948732605D6093050550
:10467000805D809306051092070562E075E088E092
:104680009AE00E941B1662E080E00E942F140E94B4
:10469000231663E080E00E942F14E090F707F0906B
:1046A000F8078091F9078E151F0411F0E092F907C1
:1046B0008091EC090E94E20221E0009709F020E0DD
:1046C0002093ED09892B21F488EF99E00E9443069D
:1046D0008091EA090E94B3049093EF098093EE0958
:1046E0008D3BE2E09E0708F46DC285EF99E00E94E1
:1046F00043068091EB090E94B3049093F1098093E3
:10470000F0098D3B22E0920708F463C287EF99E03D
:104710000E944306EF28B9F00E9427050091180572
:104720001091190520911A0530911B05601B710B22
:10473000820B930B683873418105910520F010922C
:10474000F8071092F70780911B028823E1F00E947E
:10475000270500911405109115052091160530913B
:104760001705601B710B820B930B60327E44810531
:10477000910548F01092130A60E088E09AE00E94E8
:10478000A50A10921B028091F309882381F11092EF
:10479000F30980911B02811114C088E08093130AF1
:1047A00060E088E09AE00E94A50A1092F409109255
:1047B000F5091092F6091092F7091092F809809203
:1047C0001B020E94270560931805709319058093BA
:1047D0001A0590931B050E9427056093140570939A
:1047E000150580931605909317050E94611480911A
:1047F000F7079091F8078230910509F422C208F07A
:10480000EFC1009709F43AC2019709F46BC20E9404
:10481000270500911C0510911D0520911E05309162
:104820001F05AB01BC01401B510B620B730B483ED3
:1048300053406105710508F44FC3D901C80188517F
:104840009C4FAF4FBF4F80931C0590931D05A093C5
:104850001E05B0931F050E947F06882351F08091AA
:10486000AD098C3009F44FC308F0D8C28B3009F47D
:10487000EFC260E070E080EC9FE712C301301105E9
:1048800011F080920C0580910C05882309F44EC02C
:104890000E942705009108051091090520910A053D
:1048A00030910B05601B710B820B930B60327340D0
:1048B0008105910508F494C00E94270560930805BE
:1048C0007093090580930A0590930B0510920C05CF
:1048D0000E94611460E080E00E942F146EE374E097
:1048E00088E09AE00E941B1661E080E00E942F148D
:1048F00066E273E088E09AE00E941B1662E080E0C6
:104900000E942F1461E373E088E09AE00E941B1676
:1049100063E080E00E942F146DE373E088E09AE08A
:104920000E941B1680910C0581115AC00E94270518
:10493000009108051091090520910A0530910B0599
:10494000601B710B820B930B6C32714081059105DA
:1049500008F446C00E942705609308057093090576
:1049600080930A0590930B0580920C050E946114B8
:1049700080911305882351F060E080E00E942F149D
:104980006EE374E088E09AE00E941B1680911305A4
:10499000813051F061E080E00E942F1466E273E004
:1049A00088E09AE00E941B1680911305823051F036
:1049B00062E080E00E942F1461E373E088E09AE0F7
:1049C0000E941B1680911305833051F063E080E054
:1049D0000E942F146DE373E088E09AE00E941B169A
:1049E00080911205882309F458CE10921205809107
:1049F0001305813081F030F0823009F04ECE86E030
:104A000090E002C084E090E09093F8078093F7076D
:104A10000E94611442CE85E090E0F6CF60E080E035
:104A20000E942F1464E473E088E09AE00E941B1651
:104A3000E091140AF091150A3197E730F10508F07A
:104A40002CCE8827E95DFA4D8F4F0C949B322E2592
:104A5000382541253B25442535253E2560E573E075
:104A600088E09AE00E941B1618CE6DE473E0F8CF40
:104A700066E573E0F5CF6DE573E0F2CF6FE673E0C6
:104A8000EFCF68E773E0ECCF66E873E0E9CF60E072
:104A900080E00E942F1462E973E088E09AE00E94AF
:104AA0001B1660917B0770E090E080E04AE00E9476
:104AB000E414F3CD60E080E00E942F146EE973E00F
:104AC000CFCF60E080E00E942F140E94231661E0A7
:104AD00080E00E942F1468EA73E088E09AE00E9468
:104AE0001B1660912B0A70912C0A072E000C880B64
:104AF000990B0E94942F20E030E040E251E40E94A4
:104B0000A73142E00E942A1562E080E00E942F1443
:104B100063EB73E088E09AE00E941B166091FE0749
:104B20007091FF07809100089091010842E00E9477
:104B30002A1563E080E00E942F146EEB73E088E09A
:104B40009AE00E941B166091270A7091280A072E8E
:104B5000000C880B990B0E94942F20E030E040E27B
:104B600051E40E94A73142E00E942A1596CD60E0F0
:104B700080E00E942F146BEC73E088E09AE00E94C2
:104B80001B1661E080E00E942F14E0911105EE0FEA
:104B9000FF0BEB58FD4F6081718188E09AE00E9425
:104BA0001B1662E080E00E942F146DED73E088E038
:104BB0009AE00E941B1662E088E00E942F14609128
:104BC0001A0271CF843F914008F093CD84EF99E0B1
:104BD0008ECD843F914008F09DCD86EF99E098CD31
:104BE0008530910509F49EC08730910509F4D8C03D
:104BF000049709F00CCE8091F409882379F0109283
:104C0000F40980912B0A90912C0A019690932C0A1A
:104C100080932B0A8BE29AE00E94CD148091F509D3
:104C2000882379F01092F50980912B0A90912C0A33
:104C3000019790932C0A80932B0A8BE29AE00E94B2
:104C4000CD148091F409882349F01092F4098091E1
:104C50007B078E3F18F48F5F80937B078091F50967
:104C6000882309F4D4CD1092F50980917B0788231D
:104C700009F4CDCD815080937B07C9CD8091F8098F
:104C8000882341F01092F809B092F807A092F70734
:104C9000109213058091F5098823A9F01092F50967
:104CA00082E090E09093F8078093F7078091F709EE
:104CB000882381F01092F70987E090E09093F8073D
:104CC0008093F707A4CD8091F409882379F310929B
:104CD000F409E6CF8091F609882309F498CD109263
:104CE000F609EACF8091F409882339F01092F4098B
:104CF000809113058150809313058091F5098823D5
:104D000039F01092F509809113058F5F8093130598
:104D10008091F809882309F47ACD1092F8098092DD
:104D2000120575CD8091F4098823D1F01092F40911
:104D30008091140A9091150A01969093150A809318
:104D4000140A0E94C3148091140A9091150A0897BE
:104D500039F4B092150AA092140A0E94C31457CDD8
:104D60008091F509882309F452CD1092F5098091BC
:104D7000140A9091150A01979093150A8093140ACA
:104D80000E94C3148091140A9091150A892B09F08E
:104D90003ECD87E090E09093150A8093140ADDCF12
:104DA0008091F709882339F0809111051092F70955
:104DB0008F5F809311058091F609882339F08091E7
:104DC00011051092F6098150809311058091F40924
:104DD000882349F01092F40980911A02893C18F452
:104DE0008B5F80931A028091F509882349F0109215
:104DF000F50980911A028A3018F0855080931A02C2
:104E000080911105893014F01092110580911105DF
:104E100087FFFDCC88E080931105F9CC8551823065
:104E200008F027CD1091A909612F70E0762F662731
:104E300066277F778091AA09682B90E080E00E9426
:104E4000922F2DEC3CEC4CEC5DE30E94F32F77C0ED
:104E50006091A90970E090E080E00E94922F6B01C0
:104E60007C011091AA0917FF0AC0AC019B0160E008
:104E700070E080E89FEB0E943A316B017C011F706B
:104E8000612F70E090E080E00E94942F2DEC3CECCC
:104E90004CEC5DE30E94F32FA70196010E943B3189
:104EA00020E030E040E050E40E943A316B017C01A8
:104EB000C092FE07D092FF07E0920008F09201082E
:104EC000BC01A60182ED99E00E940711B701A6017D
:104ED0008AEB99E00E940711E0918207F091830725
:104EE000E930F10508F060C08827E658F84D8F4F8B
:104EF0000C949B32EF297228A3277B29AB29B02879
:104F0000D427D4276D291091A909612F70E090E072
:104F100080E00E94922F6B017C016091AA096F7062
:104F200070E090E080E00E94942F2DEC3CEC4CEC83
:104F30005DE30E94F32FA70196010E943B3117FF0A
:104F4000AFCF9058ADCF80919E0581112DC00E94AA
:104F5000270500919A0510919B0520919C053091A1
:104F60009D05AB01BC01401B510B620B730B44361A
:104F7000510561057105C0F0D901C8018C599F4FD9
:104F8000AF4FBF4F80939A0590939B05A0939C05CC
:104F9000B0939D0590917C0780917D079E3109F02B
:104FA00068C0843B09F06EC080917B078093AB089A
:104FB0000E9433058091980990919909DC01ED9147
:104FC000FC910084F185E02D1995892B09F42CC200
:104FD0008091A309811110C08092A30910929E09AB
:104FE00010929D090E94270560939F097093A00964
:104FF0008093A1099093A2098091980990919909B1
:10500000DC01ED91FC910284F385E02D19959091DE
:105010009A0920919D0930919E098913EDC120596B
:10502000364FF90110821092A30980E799E0FC0144
:1050300001900020E9F7CF0181579940AFEFA80F09
:10504000E0E7F9E060E010E06A1708F019C271913A
:1050500048E050E0212F30E035952795172710FFC5
:105060000DC21CE8122776954150510999F76F5FE0
:10507000EBCF9F5F90937C07843B40F0843B79F1BA
:10508000815005C080929905843BD0F78F5F809353
:105090007D0700E215E048E9E42E45E0F42EDD242A
:1050A000DA9480917D0790917C0799838A83DB82D3
:1050B000B801CE0101960E94BB0A0D5F1F4FE0169A
:1050C000F10679F780919905882309F46DCF8091D5
:1050D0009805882309F468CF80929E0565CF809259
:1050E0009805D7CF80911C02882361F010921C0292
:1050F0000E94270560937E0770937F078093800747
:10510000909381070E94270500917E0710917F07E9
:105110002091800730918107601B710B820B930BEC
:10512000683E73408105910508F43ECF8FEF90E013
:105130009A83898380917D0790E09B8B8A8B8091F5
:105140007C0790E09D8B8C8B22E0AE014F5F5F4F20
:10515000BE016E5E7F4FCE0144960E94381224CF6E
:1051600010917B071E3F30F50E942705C090160660
:10517000D0901706E0901806F0901906AB01BC011C
:105180004C195D096E097F094F3452416105710563
:1051900088F0D701C601815B9D4EAF4FBF4F809312
:1051A000160690931706A0931806B09319061F5F72
:1051B00010937B070E942705009112061091130699
:1051C0002091140630911506AB01BC01401B510B18
:1051D000620B730B4A3551056105710508F4E4CE85
:1051E000D901C801865A9F4FAF4FBF4F8093120617
:1051F00090931306A0931406B09315063FE9C32EAF
:1052000035E0D32E02E116E076010E943C1348E01F
:10521000849F90011124D7012D917D01231B08F457
:1052200020E0FD01319720830A171B0771F7E0E1A9
:10523000F6E023E030E08081429150E0840F952F2A
:10524000911D840F951FB9010E9487326283CE168B
:10525000DF0689F70E943C138639C0F40E943C1394
:10526000B7E08B9F80011124012F11270E943C136E
:10527000EFE58E9FC001112430EA390FF801E156A5
:10528000FA4F2081230F08F42FEF2083EEE1F6E0A0
:105290003FEB40E0D6015D916D01242F552329F0AD
:1052A000539F212D112431112F5F822F880F880FDA
:1052B00027FD0DC026FF0EC0282F90E08FEF8083C2
:1052C000218392833396EC14FD0421F76DCE982F41
:1052D0002FEFF4CF90E020E0F2CF88EC90E09A83BB
:1052E000898385EE90E09B8B8A8B8AE090E09D8B92
:1052F0008C8B23E02ACF0E94270500911A0610917B
:105300001B0620911C0630911D06DC01CB01801B81
:10531000910BA20BB30B803D9740A105B10508F49A
:1053200043CE80917B07B901A8014053584F6F4F7E
:105330007F4F40931A0650931B0660931C06709390
:105340001D06815080937B0781112ECE109283071A
:105350001092820729CE0E942705009177071091AD
:1053600078072091790730917A07DC01CB01801B07
:10537000910BA20BB30B84369105A105B10508F47E
:1053800013CE80917B07B901A8014C595F4F6F4F35
:105390007F4F409377075093780760937907709316
:1053A0007A07843608F000CE8F5F80937B070EE18A
:1053B00016E087E7E82E87E0F82E96E9C92EDD246F
:1053C000DA941982CA82DB82B801CE0101960E946A
:1053D000BB0A0D5F1F4FE016F10699F7E5CD10925D
:1053E0007B070E94270286E090E0909383078093DA
:1053F000820780921C02D8CD2732310558F4A901CA
:105400004F5F5F4F50939E0940939D092059364F3F
:10541000D9018C930E94270560939F097093A0097E
:105420008093A1099093A2098091A309882309F48C
:1054300049C00E94270500919F091091A009209161
:10544000A1093091A209AB01BC01401B510B620BB9
:10545000730B80919B0990919C09B0E0A0E04817E4
:1054600059076A077B0770F11092A309E0919D0923
:10547000F0919E09E059F64F1082D7CD122FF3CD4F
:105480009927FC01E159F64F008165EE73E08EE04B
:1054900098E00E941B1662EE73E08EE098E00E9496
:1054A0001B1680E799E00E940816011779F08AE23E
:1054B0008093840741E050E064E877E083ED98E072
:1054C0000E9489070E9496080C94771E62EF73E091
:1054D0008EE098E00E941B161091720900917409E9
:1054E0005091D008E091CC08F091CD0830E020E058
:1054F0004191C9010196442321F04513C9019C0142
:10550000F7CF9093D2088093D1088091CE089091E4
:10551000CF08009711F00E9446338091D1089091F6
:10552000D208880F991F0E94AA329093CF088093C7
:10553000CE082091CC083091CD08DC012D933C930E
:1055400030E020E090E080E0E091CC08F091CD08E0
:10555000E80FF91F40814423D1F05091D008019603
:105560004513F2CF10822F5F3F4FA901440F551F03
:10557000E091CE08F091CF08E40FF51F4091CC08E0
:105580005091CD08480F591F51834083DDCF809142
:1055900070098F3209F096CF123609F415C113360F
:1055A00009F407C2113609F08DCFEFE9E00FE730BB
:1055B00008F0EDC10E2E000CFF0B8827ED51F54DC4
:1055C0008F4F0C949B32EA2A482B872BA22BBB2BA4
:1055D000D22BDE2BE091CE08F091CF088681978107
:1055E0000E94CB2D20E030E040E251E40E94F32FF6
:1055F0000E94193270932C0A60932B0A8BE29AE076
:105600000E94CD14E090CE08F090CF08F70186817B
:1056100097810E94CF2DC62E60939A07D7011896C6
:105620008D919C910E94CF2DD62E60939907F70102
:10563000828593850E94CF2D6093980788E0E8E9E2
:10564000F7E0DE011A9601900D928A95E1F720911C
:105650009E0730919F07390110919D07F0909C079C
:1056600011160CF0CDC11D300CF01CE0F7FCE4C0AD
:105670004F2D0F2C000C550B8FEF810F873008F04A
:10568000AAC0813009F4ABC080FFA7C08EE1A8C0DA
:10569000E091CE08F091CF08868197810E94CB2DB2
:1056A00020E030E040E251E40E94F32F0E941932E2
:1056B0007093280A6093270A87E29AE00E94CD142B
:1056C000E091CE08F091CF08868197810E94CF2D7E
:1056D0007093040A6093030A83E09AE00E94CD1459
:1056E000E091CE08F091CF08808591850E94CF2D62
:1056F0007093000A6093FF098FEF99E00E94CD1428
:105700000E941B128092180A0E946C14DBCEE0915A
:10571000CE08F091CF08868197810E94CB2D20E0A2
:1057200030E040E251E40E94F32F0E94193270935E
:10573000240A6093230A83E29AE00E94CD14109217
:10574000180AE2CFE091CE08F091CF0886819781C8
:105750000E94CB2D20E030E040E251E40E94F32F84
:105760000E9419327093200A60931F0A8FE19AE019
:105770000E94CD14A7CEE091CE08F091CF0886818B
:1057800097810E94CB2D20E030E040E251E40E945E
:10579000F32F0E94193270931C0A60931B0A8BE14D
:1057A0009AE0E6CF80912B0A90912C0A059690936F
:1057B0002C0A80932B0A8BE29AE0DACF80912B0A95
:1057C00090912C0A0597F3CF013609F41BCF0236CE
:1057D00009F0DDC075CF80FF59CF8FE101C08CE1AA
:1057E000841715060CF4F82EE62EFBE3F61734F5B5
:1057F000ABE3EA2E4BE34D152CF5FBE3DF2E9C2C9F
:1058000087E18C151CF5E7E19E2E203D97E03907D6
:1058100010F0205D37408F2D0F2C000C990B40E0CD
:1058200051E0540F5117F8F44730A0F44130B1F073
:1058300040FF12C04EE113C0F12CD6CF67FFDACF84
:10584000E12CD8CFD7FEDBCFD12CD9CFC7FEDDCF0F
:10585000912CDBCF40FFEECF4FE101C04CE1840F34
:10586000911D452FDDCF133030F0A901437055272E
:10587000452B09F40196A9014D5F5F4F5695479559
:1058800056954795EDE6F1E02E9FB0012F9F700DE4
:105890003E9F700D11246C5F7F4F460F571F840F82
:1058A000951F67E070E00E947332DC011196BC8F97
:1058B000AB8FB0ED6B1AB7E07B0A8091070A80923C
:1058C000D5078093F6071092BD081092BC0890E0AF
:1058D00080E00E94A00A7AE0372E8E2D632D0E9470
:1058E0006532E0E18E02B0011124692B80EC98E072
:1058F0000E94710A8D2D632D0E946532F0E18F02A6
:10590000B0011124692B80EC98E00E94710A23E118
:105910002C150CF040C0892D64E10E946532892F5E
:105920008062082E000C990B0E94A00A6B8D80ECFF
:1059300098E00E94710A8AE0E82E8F2D6E2D0E9459
:10594000653240E18402B0011124692B80EC98E0BB
:105950000E94710A812F6E2D0E946532A0E18A0299
:10596000B0011124692B80EC98E00E94710A862D09
:105970006E2D0E946532B0E18B02B0011124692BBB
:1059800080EC98E00E94710A81E00E942A090336A7
:1059900009F098CDD4CE39E0892D092C000C990B53
:1059A0003C1514F6892D632D0E946532892F806184
:1059B000B8CF0336E1F064F4013691F082E090E074
:1059C000023609F07FCD9093150A8093140A0CC01B
:1059D000053699F07CF086E090E00636A1F372CDB2
:1059E000B092150AA092140A0E94C3146BCD84E0F1
:1059F00090E0E9CF83E090E0E6CF85E090E0E3CF70
:105A000011E0F7FC19CF4F2D0F2C000C550B11E0B6
:105A100080E03ACE0830110510F00C945823F801BC
:105A20008827EA5EF24D8F4F0C949B32D7223E249A
:105A300047255A2561250E255823B7258091CE0884
:105A40009091CF08009711F00C94463308958F92EF
:105A50009F92AF92BF92CF92DF92EF92FF92CF933D
:105A6000DF93EC01688179818A819B8161157105E1
:105A70008105910521F464E279ED8BE597E02DE154
:105A800033EF41E050E00E94F93049015A019B0197
:105A9000AC01A7EAB1E40E9418316B017C01ACEEC5
:105AA000B4EFA50194010E942631C60ED71EE81E50
:105AB000F91EF7FE06C081E0C81AD108E10880E8A7
:105AC000F80AC882D982EA82FB82C701B6019F77B1
:105AD000DF91CF91FF90EF90DF90CF90BF90AF908C
